{
    "_format": "hh-sol-artifact-1",
    "contractName": "YourCollectible",
    "sourceName": "contracts/YourCollectible.sol",
    "abi": [
        {
            "inputs": [],
            "stateMutability": "nonpayable",
            "type": "constructor"
        },
        {
            "anonymous": false,
            "inputs": [
                {
                    "indexed": true,
                    "internalType": "address",
                    "name": "owner",
                    "type": "address"
                },
                {
                    "indexed": true,
                    "internalType": "address",
                    "name": "approved",
                    "type": "address"
                },
                {
                    "indexed": true,
                    "internalType": "uint256",
                    "name": "tokenId",
                    "type": "uint256"
                }
            ],
            "name": "Approval",
            "type": "event"
        },
        {
            "anonymous": false,
            "inputs": [
                {
                    "indexed": true,
                    "internalType": "address",
                    "name": "owner",
                    "type": "address"
                },
                {
                    "indexed": true,
                    "internalType": "address",
                    "name": "operator",
                    "type": "address"
                },
                {
                    "indexed": false,
                    "internalType": "bool",
                    "name": "approved",
                    "type": "bool"
                }
            ],
            "name": "ApprovalForAll",
            "type": "event"
        },
        {
            "anonymous": false,
            "inputs": [
                {
                    "indexed": true,
                    "internalType": "address",
                    "name": "previousOwner",
                    "type": "address"
                },
                {
                    "indexed": true,
                    "internalType": "address",
                    "name": "newOwner",
                    "type": "address"
                }
            ],
            "name": "OwnershipTransferred",
            "type": "event"
        },
        {
            "anonymous": false,
            "inputs": [
                {
                    "indexed": true,
                    "internalType": "address",
                    "name": "from",
                    "type": "address"
                },
                {
                    "indexed": true,
                    "internalType": "address",
                    "name": "to",
                    "type": "address"
                },
                {
                    "indexed": true,
                    "internalType": "uint256",
                    "name": "tokenId",
                    "type": "uint256"
                }
            ],
            "name": "Transfer",
            "type": "event"
        },
        {
            "inputs": [
                {
                    "internalType": "uint256",
                    "name": "id",
                    "type": "uint256"
                }
            ],
            "name": "aatestRandoms",
            "outputs": [
                {
                    "internalType": "bytes2",
                    "name": "foo",
                    "type": "bytes2"
                }
            ],
            "stateMutability": "nonpayable",
            "type": "function"
        },
        {
            "inputs": [
                {
                    "internalType": "address",
                    "name": "to",
                    "type": "address"
                },
                {
                    "internalType": "uint256",
                    "name": "tokenId",
                    "type": "uint256"
                }
            ],
            "name": "approve",
            "outputs": [],
            "stateMutability": "nonpayable",
            "type": "function"
        },
        {
            "inputs": [
                {
                    "internalType": "address",
                    "name": "owner",
                    "type": "address"
                }
            ],
            "name": "balanceOf",
            "outputs": [
                {
                    "internalType": "uint256",
                    "name": "",
                    "type": "uint256"
                }
            ],
            "stateMutability": "view",
            "type": "function"
        },
        {
            "inputs": [],
            "name": "baseURI",
            "outputs": [
                {
                    "internalType": "string",
                    "name": "",
                    "type": "string"
                }
            ],
            "stateMutability": "view",
            "type": "function"
        },
        {
            "inputs": [
                {
                    "internalType": "uint256",
                    "name": "",
                    "type": "uint256"
                }
            ],
            "name": "bgColor",
            "outputs": [
                {
                    "internalType": "bytes3",
                    "name": "",
                    "type": "bytes3"
                }
            ],
            "stateMutability": "view",
            "type": "function"
        },
        {
            "inputs": [
                {
                    "internalType": "uint256",
                    "name": "",
                    "type": "uint256"
                }
            ],
            "name": "chubbiness",
            "outputs": [
                {
                    "internalType": "uint256",
                    "name": "",
                    "type": "uint256"
                }
            ],
            "stateMutability": "view",
            "type": "function"
        },
        {
            "inputs": [
                {
                    "internalType": "uint256",
                    "name": "",
                    "type": "uint256"
                }
            ],
            "name": "color",
            "outputs": [
                {
                    "internalType": "bytes3",
                    "name": "",
                    "type": "bytes3"
                }
            ],
            "stateMutability": "view",
            "type": "function"
        },
        {
            "inputs": [
                {
                    "internalType": "uint256",
                    "name": "tokenId",
                    "type": "uint256"
                }
            ],
            "name": "getApproved",
            "outputs": [
                {
                    "internalType": "address",
                    "name": "",
                    "type": "address"
                }
            ],
            "stateMutability": "view",
            "type": "function"
        },
        {
            "inputs": [
                {
                    "internalType": "uint256",
                    "name": "id",
                    "type": "uint256"
                }
            ],
            "name": "getScripture",
            "outputs": [
                {
                    "internalType": "string",
                    "name": "",
                    "type": "string"
                }
            ],
            "stateMutability": "view",
            "type": "function"
        },
        {
            "inputs": [
                {
                    "internalType": "address",
                    "name": "owner",
                    "type": "address"
                },
                {
                    "internalType": "address",
                    "name": "operator",
                    "type": "address"
                }
            ],
            "name": "isApprovedForAll",
            "outputs": [
                {
                    "internalType": "bool",
                    "name": "",
                    "type": "bool"
                }
            ],
            "stateMutability": "view",
            "type": "function"
        },
        {
            "inputs": [],
            "name": "mintItem",
            "outputs": [
                {
                    "internalType": "uint256",
                    "name": "",
                    "type": "uint256"
                }
            ],
            "stateMutability": "nonpayable",
            "type": "function"
        },
        {
            "inputs": [],
            "name": "name",
            "outputs": [
                {
                    "internalType": "string",
                    "name": "",
                    "type": "string"
                }
            ],
            "stateMutability": "view",
            "type": "function"
        },
        {
            "inputs": [],
            "name": "owner",
            "outputs": [
                {
                    "internalType": "address",
                    "name": "",
                    "type": "address"
                }
            ],
            "stateMutability": "view",
            "type": "function"
        },
        {
            "inputs": [
                {
                    "internalType": "uint256",
                    "name": "tokenId",
                    "type": "uint256"
                }
            ],
            "name": "ownerOf",
            "outputs": [
                {
                    "internalType": "address",
                    "name": "",
                    "type": "address"
                }
            ],
            "stateMutability": "view",
            "type": "function"
        },
        {
            "inputs": [
                {
                    "internalType": "uint256",
                    "name": "id",
                    "type": "uint256"
                }
            ],
            "name": "renderCrossToken",
            "outputs": [
                {
                    "internalType": "string",
                    "name": "",
                    "type": "string"
                }
            ],
            "stateMutability": "view",
            "type": "function"
        },
        {
            "inputs": [
                {
                    "internalType": "uint256",
                    "name": "id",
                    "type": "uint256"
                }
            ],
            "name": "renderTokenById",
            "outputs": [
                {
                    "internalType": "string",
                    "name": "",
                    "type": "string"
                }
            ],
            "stateMutability": "view",
            "type": "function"
        },
        {
            "inputs": [],
            "name": "renounceOwnership",
            "outputs": [],
            "stateMutability": "nonpayable",
            "type": "function"
        },
        {
            "inputs": [
                {
                    "internalType": "address",
                    "name": "from",
                    "type": "address"
                },
                {
                    "internalType": "address",
                    "name": "to",
                    "type": "address"
                },
                {
                    "internalType": "uint256",
                    "name": "tokenId",
                    "type": "uint256"
                }
            ],
            "name": "safeTransferFrom",
            "outputs": [],
            "stateMutability": "nonpayable",
            "type": "function"
        },
        {
            "inputs": [
                {
                    "internalType": "address",
                    "name": "from",
                    "type": "address"
                },
                {
                    "internalType": "address",
                    "name": "to",
                    "type": "address"
                },
                {
                    "internalType": "uint256",
                    "name": "tokenId",
                    "type": "uint256"
                },
                {
                    "internalType": "bytes",
                    "name": "_data",
                    "type": "bytes"
                }
            ],
            "name": "safeTransferFrom",
            "outputs": [],
            "stateMutability": "nonpayable",
            "type": "function"
        },
        {
            "inputs": [
                {
                    "internalType": "uint256",
                    "name": "",
                    "type": "uint256"
                }
            ],
            "name": "scripture",
            "outputs": [
                {
                    "internalType": "string",
                    "name": "",
                    "type": "string"
                }
            ],
            "stateMutability": "view",
            "type": "function"
        },
        {
            "inputs": [
                {
                    "internalType": "address",
                    "name": "operator",
                    "type": "address"
                },
                {
                    "internalType": "bool",
                    "name": "approved",
                    "type": "bool"
                }
            ],
            "name": "setApprovalForAll",
            "outputs": [],
            "stateMutability": "nonpayable",
            "type": "function"
        },
        {
            "inputs": [
                {
                    "internalType": "bytes4",
                    "name": "interfaceId",
                    "type": "bytes4"
                }
            ],
            "name": "supportsInterface",
            "outputs": [
                {
                    "internalType": "bool",
                    "name": "",
                    "type": "bool"
                }
            ],
            "stateMutability": "view",
            "type": "function"
        },
        {
            "inputs": [],
            "name": "symbol",
            "outputs": [
                {
                    "internalType": "string",
                    "name": "",
                    "type": "string"
                }
            ],
            "stateMutability": "view",
            "type": "function"
        },
        {
            "inputs": [
                {
                    "internalType": "uint256",
                    "name": "index",
                    "type": "uint256"
                }
            ],
            "name": "tokenByIndex",
            "outputs": [
                {
                    "internalType": "uint256",
                    "name": "",
                    "type": "uint256"
                }
            ],
            "stateMutability": "view",
            "type": "function"
        },
        {
            "inputs": [
                {
                    "internalType": "address",
                    "name": "owner",
                    "type": "address"
                },
                {
                    "internalType": "uint256",
                    "name": "index",
                    "type": "uint256"
                }
            ],
            "name": "tokenOfOwnerByIndex",
            "outputs": [
                {
                    "internalType": "uint256",
                    "name": "",
                    "type": "uint256"
                }
            ],
            "stateMutability": "view",
            "type": "function"
        },
        {
            "inputs": [
                {
                    "internalType": "uint256",
                    "name": "id",
                    "type": "uint256"
                }
            ],
            "name": "tokenURI",
            "outputs": [
                {
                    "internalType": "string",
                    "name": "",
                    "type": "string"
                }
            ],
            "stateMutability": "view",
            "type": "function"
        },
        {
            "inputs": [],
            "name": "totalSupply",
            "outputs": [
                {
                    "internalType": "uint256",
                    "name": "",
                    "type": "uint256"
                }
            ],
            "stateMutability": "view",
            "type": "function"
        },
        {
            "inputs": [
                {
                    "internalType": "address",
                    "name": "from",
                    "type": "address"
                },
                {
                    "internalType": "address",
                    "name": "to",
                    "type": "address"
                },
                {
                    "internalType": "uint256",
                    "name": "tokenId",
                    "type": "uint256"
                }
            ],
            "name": "transferFrom",
            "outputs": [],
            "stateMutability": "nonpayable",
            "type": "function"
        },
        {
            "inputs": [
                {
                    "internalType": "address",
                    "name": "newOwner",
                    "type": "address"
                }
            ],
            "name": "transferOwnership",
            "outputs": [],
            "stateMutability": "nonpayable",
            "type": "function"
        }
    ],
    "bytecode": "0x601d6101809081527f426c6573736564206172652074686520706f6f7220696e2073706972740000006101a0526080908152601b6101c09081527f426c6573736564206172652074686f73652077686f206d6f75726e00000000006101e05260a05260146102009081527f426c65737365642061726520746865206d65656b0000000000000000000000006102205260c0526102a0604052603961024081815260e091620039286102603981526020016040518060400160405280601881526020017f426c65737365642061726520746865206d6572636966756c000000000000000081525081526020016040518060400160405280601d81526020017f426c65737365642061726520746865207075726520696e20686561727400000081525081526020016040518060400160405280601b81526020017f426c657373656420617265207468652070656163656d616b657273000000000081525081526020016040518060600160405280603d8152602001620038eb603d913990526200018c90600c9060086200036f565b50426201518001601155348015620001a357600080fd5b506040805180820182526009815268426c657373696e677360b81b60208083019190915282518084019093526005835264424c45535360d81b9083015290620001fc6301ffc9a760e01b6001600160e01b03620002e516565b815162000211906006906020850190620003d3565b50805162000227906007906020840190620003d3565b50620002436380ac58cd60e01b6001600160e01b03620002e516565b6200025e635b5e139f60e01b6001600160e01b03620002e516565b6200027963780e9d6360e01b6001600160e01b03620002e516565b5060009050620002916001600160e01b036200036a16565b600a80546001600160a01b0319166001600160a01b038316908117909155604051919250906000907f8be0079c531659141344cd1fd0a4f28419497f9722a3daafe3b4186f6b6457e0908290a350620004e4565b6001600160e01b0319808216141562000345576040805162461bcd60e51b815260206004820152601c60248201527f4552433136353a20696e76616c696420696e7465726661636520696400000000604482015290519081900360640190fd5b6001600160e01b0319166000908152602081905260409020805460ff19166001179055565b335b90565b828054828255906000526020600020908101928215620003c1579160200282015b82811115620003c15782518051620003b0918491602090910190620003d3565b509160200191906001019062000390565b50620003cf92915062000454565b5090565b828054600181600116156101000203166002900490600052602060002090601f016020900481019282601f106200041657805160ff191683800117855562000446565b8280016001018555821562000446579182015b828111156200044657825182559160200191906001019062000429565b50620003cf9291506200047c565b6200036c91905b80821115620003cf57600062000472828262000499565b506001016200045b565b6200036c91905b80821115620003cf576000815560010162000483565b50805460018160011615610100020316600290046000825580601f10620004c15750620004e1565b601f016020900490600052602060002090810190620004e191906200047c565b50565b6133f780620004f46000396000f3fe608060405234801561001057600080fd5b50600436106101cf5760003560e01c8063715018a611610104578063c745843e116100a2578063e985e9c511610071578063e985e9c51461063b578063eb93406b14610669578063f2fde38b14610671578063faa204e114610697576101cf565b8063c745843e146105aa578063c87b56dd146105e4578063d4e28c9c14610601578063dffe50361461061e576101cf565b806395d89b41116100de57806395d89b4114610491578063a22cb46514610499578063a2d6c6da146104c7578063b88d4fde146104e4576101cf565b8063715018a6146104645780637af228871461046c5780638da5cb5b14610489576101cf565b80632f745c5911610171578063608ef2e41161014b578063608ef2e4146103df5780636352211e146104195780636c0360eb1461043657806370a082311461043e576101cf565b80632f745c591461036057806342842e0e1461038c5780634f6ccce7146103c2576101cf565b8063095ea7b3116101ad578063095ea7b3146102c55780631237c392146102f357806318160ddd1461031057806323b872dd1461032a576101cf565b806301ffc9a7146101d457806306fdde031461020f578063081812fc1461028c575b600080fd5b6101fb600480360360208110156101ea57600080fd5b50356001600160e01b0319166106b4565b604080519115158252519081900360200190f35b6102176106d7565b6040805160208082528351818301528351919283929083019185019080838360005b83811015610251578181015183820152602001610239565b50505050905090810190601f16801561027e5780820380516001836020036101000a031916815260200191505b509250505060405180910390f35b6102a9600480360360208110156102a257600080fd5b503561076e565b604080516001600160a01b039092168252519081900360200190f35b6102f1600480360360408110156102db57600080fd5b506001600160a01b0381351690602001356107d0565b005b6102176004803603602081101561030957600080fd5b50356108ab565b610318610946565b60408051918252519081900360200190f35b6102f16004803603606081101561034057600080fd5b506001600160a01b03813581169160208101359091169060400135610957565b6103186004803603604081101561037657600080fd5b506001600160a01b0381351690602001356109ae565b6102f1600480360360608110156103a257600080fd5b506001600160a01b038135811691602081013590911690604001356109df565b610318600480360360208110156103d857600080fd5b50356109fa565b6103fc600480360360208110156103f557600080fd5b5035610a16565b604080516001600160e81b03199092168252519081900360200190f35b6102a96004803603602081101561042f57600080fd5b5035610a2b565b610217610a59565b6103186004803603602081101561045457600080fd5b50356001600160a01b0316610aba565b6102f1610b22565b6102176004803603602081101561048257600080fd5b5035610be0565b6102a9610e23565b610217610e32565b6102f1600480360360408110156104af57600080fd5b506001600160a01b0381351690602001351515610e93565b610217600480360360208110156104dd57600080fd5b5035610f98565b6102f1600480360360808110156104fa57600080fd5b6001600160a01b0382358116926020810135909116916040820135919081019060808101606082013564010000000081111561053557600080fd5b82018360208201111561054757600080fd5b8035906020019184600183028401116401000000008311171561056957600080fd5b91908080601f016020809104026020016040519081016040528093929190818152602001838380828437600092019190915250929550611174945050505050565b6105c7600480360360208110156105c057600080fd5b50356111d2565b604080516001600160f01b03199092168252519081900360200190f35b610217600480360360208110156105fa57600080fd5b503561122b565b6103fc6004803603602081101561061757600080fd5b5035611764565b6102176004803603602081101561063457600080fd5b5035611779565b6101fb6004803603604081101561065157600080fd5b506001600160a01b0381358116916020013516611876565b6103186118a4565b6102f16004803603602081101561068757600080fd5b50356001600160a01b03166119fb565b610318600480360360208110156106ad57600080fd5b5035611b10565b6001600160e01b0319811660009081526020819052604090205460ff165b919050565b60068054604080516020601f60026000196101006001881615020190951694909404938401819004810282018101909252828152606093909290918301828280156107635780601f1061073857610100808354040283529160200191610763565b820191906000526020600020905b81548152906001019060200180831161074657829003601f168201915b505050505090505b90565b600061077982611b22565b6107b45760405162461bcd60e51b815260040180806020018281038252602c815260200180613155602c913960400191505060405180910390fd5b506000908152600460205260409020546001600160a01b031690565b60006107db82610a2b565b9050806001600160a01b0316836001600160a01b0316141561082e5760405162461bcd60e51b81526004018080602001828103825260218152602001806132f46021913960400191505060405180910390fd5b806001600160a01b0316610840611b35565b6001600160a01b0316148061086157506108618161085c611b35565b611876565b61089c5760405162461bcd60e51b8152600401808060200182810382526038815260200180612ffe6038913960400191505060405180910390fd5b6108a68383611b39565b505050565b60106020908152600091825260409182902080548351601f60026000196101006001861615020190931692909204918201849004840281018401909452808452909183018282801561093e5780601f106109135761010080835404028352916020019161093e565b820191906000526020600020905b81548152906001019060200180831161092157829003601f168201915b505050505081565b60006109526002611ba7565b905090565b610968610962611b35565b82611bb2565b6109a35760405162461bcd60e51b81526004018080602001828103825260318152602001806133156031913960400191505060405180910390fd5b6108a6838383611c56565b6001600160a01b03821660009081526001602052604081206109d6908363ffffffff611db416565b90505b92915050565b6108a683838360405180602001604052806000815250611174565b600080610a0e60028463ffffffff611dc016565b509392505050565b600e6020526000908152604090205460e81b81565b60006109d982604051806060016040528060298152602001613060602991396002919063ffffffff611ddc16565b60098054604080516020601f60026000196101006001881615020190951694909404938401819004810282018101909252828152606093909290918301828280156107635780601f1061073857610100808354040283529160200191610763565b60006001600160a01b038216610b015760405162461bcd60e51b815260040180806020018281038252602a815260200180613036602a913960400191505060405180910390fd5b6001600160a01b03821660009081526001602052604090206109d990611ba7565b610b2a611b35565b6001600160a01b0316610b3b610e23565b6001600160a01b031614610b96576040805162461bcd60e51b815260206004820181905260248201527f4f776e61626c653a2063616c6c6572206973206e6f7420746865206f776e6572604482015290519081900360640190fd5b600a546040516000916001600160a01b0316907f8be0079c531659141344cd1fd0a4f28419497f9722a3daafe3b4186f6b6457e0908390a3600a80546001600160a01b0319169055565b6000818152600e60205260409020546060908190610c0a9060e81b6001600160e81b031916611df3565b6000848152600d6020526040902054610c2f9060e81b6001600160e81b031916611df3565b6000858152600d6020526040902054610c549060e81b6001600160e81b031916611df3565b600086815260106020908152604091829020915101806038612f3c823960380185805190602001908083835b60208310610c9f5780518252601f199092019160209182019101610c80565b5181516020939093036101000a60001901801990911692169190911790526211179f60e91b920191825250600301603a612fc48239603a0184805190602001908083835b60208310610d025780518252601f199092019160209182019101610ce3565b5181516020939093036101000a60001901801990911692169190911790526211179f60e91b920191825250600301603b6133878239603b0183805190602001908083835b60208310610d655780518252601f199092019160209182019101610d46565b5181516020939093036101000a60001901801990911692169190911790526211179f60e91b9201918252506003016046613272823960460182805460018160011615610100020316600290048015610df45780601f10610dd2576101008083540402835291820191610df4565b820191906000526020600020905b815481529060010190602001808311610de0575b5050661e17ba32bc3a1f60c91b8152604080518083036018190181526007909201905298975050505050505050565b600a546001600160a01b031690565b60078054604080516020601f60026000196101006001881615020190951694909404938401819004810282018101909252828152606093909290918301828280156107635780601f1061073857610100808354040283529160200191610763565b610e9b611b35565b6001600160a01b0316826001600160a01b03161415610f01576040805162461bcd60e51b815260206004820152601960248201527f4552433732313a20617070726f766520746f2063616c6c657200000000000000604482015290519081900360640190fd5b8060056000610f0e611b35565b6001600160a01b03908116825260208083019390935260409182016000908120918716808252919093529120805460ff191692151592909217909155610f52611b35565b60408051841515815290516001600160a01b0392909216917f17307eab39ab6107e8899845ad3d59bd9653f200f220920489ca2b5937696c319181900360200190a35050565b6000818152600d60205260409020546060908190610fc29060e81b6001600160e81b031916611df3565b6000848152600f6020526040902054610fda90611efc565b6040516c1e339034b21e9132bcb298911f60991b6020820190815290602d01606a6131df8239606a01606b612e128239631e17b39f60e11b606b8201526c1e339034b21e913432b0b2111f60991b606f8201526f3c656c6c697073652066696c6c3d222360801b607c8201528351608c9091019060208501908083835b602083106110765780518252601f199092019160209182019101611057565b6001836020036101000a038019825116818451168082178552505050505050905001806132b8603c9139603c0182805190602001908083835b602083106110ce5780518252601f1990920191602091820191016110af565b5181516020939093036101000a60001901801990911692169190911790527f222072793d2235312e383030363522207374726f6b653d2223303030222f3e00920191825250631e17b39f60e11b601f8201526c1e339034b21e9132bcb299111f60991b6023820152603001606a6130eb8239606a016067612ed58239631e17b39f60e11b606782015260408051808303604b018152606b90920190529695505050505050565b61118561117f611b35565b83611bb2565b6111c05760405162461bcd60e51b81526004018080602001828103825260318152602001806133156031913960400191505060405180910390fd5b6111cc84848484611fd7565b50505050565b506040805160001943014060208083019190915233606090811b8385015230901b6054830152825160488184030181526068909201909252805191012060001a60ff0360e81b60ff60e81b166001600160f01b03191890565b606061123682611b22565b611273576040805162461bcd60e51b81526020600482015260096024820152681b9bdd08195e1a5cdd60ba1b604482015290519081900360640190fd5b606061127e83611efc565b6040516020018080680212622a9a9a4a723960bd1b81525060090182805190602001908083835b602083106112c45780518252601f1990920191602091820191016112a5565b51815160209384036101000a60001901801990921691161790526040805192909401828103601f1901835284526000898152600d90915292909220549194506060935061131f92505060e81b6001600160e81b031916611df3565b6000858152600e60205260409020546113449060e81b6001600160e81b031916611df3565b604051602001808066636f6c6f72202360c81b81525060070183805190602001908083835b602083106113885780518252601f199092019160209182019101611369565b51815160209384036101000a60001901801990921691161790526601031339037b3160cd1b919093019081528451600790910192850191508083835b602083106113e35780518252601f1990920191602091820191016113c4565b6001836020036101000a0380198251168184511680821785525050505050509050018061212160f01b815250600201925050506040516020818303038152906040529050606061143a61143586612029565b6120bc565b6000868152600d60205260409020549091506116cc9084906114689060e81b6001600160e81b031916611df3565b6000888152600f60205260409020546114809061220a565b6114a3601461148e8b610a2b565b6001600160a01b03169063ffffffff6122e316565b856040516020018080683d913730b6b2911d1160b91b81525060090186805190602001908083835b602083106114ea5780518252601f1990920191602091820191016114cb565b6001836020036101000a038019825116818451168082178552505050505050905001806131aa6035913960350185805190602001908083835b602083106115425780518252601f199092019160209182019101611523565b6001836020036101000a038019825116818451168082178552505050505050905001806131816029913960290184805190602001908083835b6020831061159a5780518252601f19909201916020918201910161157b565b51815160209384036101000a60001901801990921691161790526c3eae96101137bbb732b9111d1160991b919093019081528551600d90910192860191508083835b602083106115fb5780518252601f1990920191602091820191016115dc565b51815160209384036101000a60001901801990921691161790526c1116101134b6b0b3b2911d101160991b919093019081527f646174613a696d6167652f7376672b786d6c3b6261736536342c000000000000600d8201528451602790910192850191508083835b602083106116825780518252601f199092019160209182019101611663565b6001836020036101000a0380198251168184511680821785525050505050509050018061227d60f01b815250600201955050505050506040516020818303038152906040526120bc565b60405160200180807f646174613a6170706c69636174696f6e2f6a736f6e3b6261736536342c000000815250601d0182805190602001908083835b602083106117265780518252601f199092019160209182019101611707565b6001836020036101000a0380198251168184511680821785525050505050509050019150506040516020818303038152906040529350505050919050565b600d6020526000908152604090205460e81b81565b60606109d98260405180604001604052806008815260200167424c455353494e4760c01b815250600c805480602002602001604051908101604052809291908181526020016000905b8282101561186d5760008481526020908190208301805460408051601f60026000196101006001871615020190941693909304928301859004850281018501909152818152928301828280156118595780601f1061182e57610100808354040283529160200191611859565b820191906000526020600020905b81548152906001019060200180831161183c57829003601f168201915b5050505050815260200190600101906117c2565b505050506123ed565b6001600160a01b03918216600090815260056020908152604080832093909416825291909152205460ff1690565b60006118b0600b6124e2565b60006118bc600b6124eb565b90506118c833826124ef565b6040805160001943014060208083019190915233606090811b8385015230901b605483015282516048818403018152606890920183528151918101919091206000848152600d8352838120805462ffffff19908116600285901a60e890811b60ff60e81b908116600188901a60f01b60ff60f01b166001600160f81b031989891a60f881811b8316939093176001600160f01b031990811694909417861c96909617909755600e8a528a8820805490961660ff95860360d881901b60ff60d81b166001600160e81b03191881871b9095168418921b8818909716171617901c929092179055600f90935292909220600383901a6037029190910460230190556119d082611779565b600083815260106020908152604090912082516119f39391929190910190612d57565b509091505090565b611a03611b35565b6001600160a01b0316611a14610e23565b6001600160a01b031614611a6f576040805162461bcd60e51b815260206004820181905260248201527f4f776e61626c653a2063616c6c6572206973206e6f7420746865206f776e6572604482015290519081900360640190fd5b6001600160a01b038116611ab45760405162461bcd60e51b8152600401808060200182810382526026815260200180612eaf6026913960400191505060405180910390fd5b600a546040516001600160a01b038084169216907f8be0079c531659141344cd1fd0a4f28419497f9722a3daafe3b4186f6b6457e090600090a3600a80546001600160a01b0319166001600160a01b0392909216919091179055565b600f6020526000908152604090205481565b60006109d960028363ffffffff61262916565b3390565b600081815260046020526040902080546001600160a01b0319166001600160a01b0384169081179091558190611b6e82610a2b565b6001600160a01b03167f8c5be1e5ebec7d5bd14f71427d1e84f3dd0314c0f7b2291e5b200ac8c7c3b92560405160405180910390a45050565b60006109d9826124eb565b6000611bbd82611b22565b611bf85760405162461bcd60e51b815260040180806020018281038252602c815260200180612f98602c913960400191505060405180910390fd5b6000611c0383610a2b565b9050806001600160a01b0316846001600160a01b03161480611c3e5750836001600160a01b0316611c338461076e565b6001600160a01b0316145b80611c4e5750611c4e8185611876565b949350505050565b826001600160a01b0316611c6982610a2b565b6001600160a01b031614611cae5760405162461bcd60e51b81526004018080602001828103825260298152602001806132496029913960400191505060405180910390fd5b6001600160a01b038216611cf35760405162461bcd60e51b8152600401808060200182810382526024815260200180612f746024913960400191505060405180910390fd5b611cfe8383836108a6565b611d09600082611b39565b6001600160a01b0383166000908152600160205260409020611d31908263ffffffff61263516565b506001600160a01b0382166000908152600160205260409020611d5a908263ffffffff61264116565b50611d6d6002828463ffffffff61264d16565b5080826001600160a01b0316846001600160a01b03167fddf252ad1be2c89b69c2b068fc378daa952ba7f163c4a11628f55a4df523b3ef60405160405180910390a4505050565b60006109d68383612663565b6000808080611dcf86866126c7565b9097909650945050505050565b6000611de9848484612742565b90505b9392505050565b60408051600680825281830190925260609182919060208201818036833701905050905060005b6003811015611ef5576f181899199a1a9b1b9c1cb0b131b232b360811b848260038110611e4357fe5b1a600f1660108110611e5157fe5b1a60f81b828260020260010181518110611e6757fe5b60200101906001600160f81b031916908160001a9053506f181899199a1a9b1b9c1cb0b131b232b360811b6004858360038110611ea057fe5b1a60f81b6001600160f81b031916901c60f81c600f1660ff1660108110611ec357fe5b1a60f81b828260020281518110611ed657fe5b60200101906001600160f81b031916908160001a905350600101611e1a565b5092915050565b606081611f2157506040805180820190915260018152600360fc1b60208201526106d2565b8160005b8115611f3957600101600a82049150611f25565b60608167ffffffffffffffff81118015611f5257600080fd5b506040519080825280601f01601f191660200182016040528015611f7d576020820181803683370190505b50859350905060001982015b8315611fce57600a840660300160f81b82828060019003935081518110611fac57fe5b60200101906001600160f81b031916908160001a905350600a84049350611f89565b50949350505050565b611fe2848484611c56565b611fee8484848461280c565b6111cc5760405162461bcd60e51b8152600401808060200182810382526032815260200180612e7d6032913960400191505060405180910390fd5b60608061203583610be0565b604051602001806041613346823960410182805190602001908083835b602083106120715780518252601f199092019160209182019101612052565b5181516020939093036101000a6000190180199091169216919091179052651e17b9bb339f60d11b920191825250604080518083036019190181526006909201905295945050505050565b60608151600014156120dd57506040805160208101909152600081526106d2565b60606040518060600160405280604081526020016130896040913990506000600384516002018161210a57fe5b04600402905060608160200167ffffffffffffffff8111801561212c57600080fd5b506040519080825280601f01601f191660200182016040528015612157576020820181803683370190505b509050818152600183018586518101602084015b818310156121c55760039283018051603f601282901c811687015160f890811b8552600c83901c8216880151811b6001860152600683901c8216880151811b60028601529116860151901b9382019390935260040161216b565b6003895106600181146121df57600281146121f0576121fc565b613d3d60f01b6001198301526121fc565b603d60f81b6000198301525b509398975050505050505050565b60608161222f57506040805180820190915260018152600360fc1b60208201526106d2565b8160005b811561224757600101600a82049150612233565b60608167ffffffffffffffff8111801561226057600080fd5b506040519080825280601f01601f19166020018201604052801561228b576020820181803683370190505b509050815b8515611fce57600019016000600a8704600a028703603001905060008160f81b9050808484815181106122bf57fe5b60200101906001600160f81b031916908160001a905350600a880497505050612290565b6060808260020260020167ffffffffffffffff8111801561230357600080fd5b506040519080825280601f01601f19166020018201604052801561232e576020820181803683370190505b509050600360fc1b8160008151811061234357fe5b60200101906001600160f81b031916908160001a905350600f60fb1b8160018151811061236c57fe5b60200101906001600160f81b031916908160001a905350600160028402015b6001811115610a0e576f181899199a1a9b1b9c1cb0b131b232b360811b85600f16601081106123b657fe5b1a60f81b8282815181106123c657fe5b60200101906001600160f81b031916908160001a90535060049490941c936000190161238b565b606060006124b2846123fe8761220a565b6040516020018083805190602001908083835b602083106124305780518252601f199092019160209182019101612411565b51815160209384036101000a600019018019909216911617905285519190930192850191508083835b602083106124785780518252601f199092019160209182019101612459565b6001836020036101000a0380198251168184511680821785525050505050509050019250505060405160208183030381529060405261298c565b9050606083845183816124c157fe5b06815181106124cc57fe5b6020026020010151905080925050509392505050565b80546001019055565b5490565b6001600160a01b03821661254a576040805162461bcd60e51b815260206004820181905260248201527f4552433732313a206d696e7420746f20746865207a65726f2061646472657373604482015290519081900360640190fd5b61255381611b22565b156125a5576040805162461bcd60e51b815260206004820152601c60248201527f4552433732313a20746f6b656e20616c7265616479206d696e74656400000000604482015290519081900360640190fd5b6125b1600083836108a6565b6001600160a01b03821660009081526001602052604090206125d9908263ffffffff61264116565b506125ec6002828463ffffffff61264d16565b5060405181906001600160a01b038416906000907fddf252ad1be2c89b69c2b068fc378daa952ba7f163c4a11628f55a4df523b3ef908290a45050565b60006109d68383612a06565b60006109d68383612a1e565b60006109d68383612ae4565b6000611de984846001600160a01b038516612b2e565b815460009082106126a55760405162461bcd60e51b8152600401808060200182810382526022815260200180612df06022913960400191505060405180910390fd5b8260000182815481106126b457fe5b9060005260206000200154905092915050565b81546000908190831061270b5760405162461bcd60e51b81526004018080602001828103825260228152602001806130c96022913960400191505060405180910390fd5b600084600001848154811061271c57fe5b906000526020600020906002020190508060000154816001015492509250509250929050565b600082815260018401602052604081205482816127dd5760405162461bcd60e51b81526004018080602001828103825283818151815260200191508051906020019080838360005b838110156127a257818101518382015260200161278a565b50505050905090810190601f1680156127cf5780820380516001836020036101000a031916815260200191505b509250505060405180910390fd5b508460000160018203815481106127f057fe5b9060005260206000209060020201600101549150509392505050565b6000612820846001600160a01b0316612bc5565b61282c57506001611c4e565b6060612952630a85bd0160e11b612841611b35565b88878760405160240180856001600160a01b03166001600160a01b03168152602001846001600160a01b03166001600160a01b0316815260200183815260200180602001828103825283818151815260200191508051906020019080838360005b838110156128ba5781810151838201526020016128a2565b50505050905090810190601f1680156128e75780820380516001836020036101000a031916815260200191505b5095505050505050604051602081830303815290604052906001600160e01b0319166020820180516001600160e01b038381831617835250505050604051806060016040528060328152602001612e7d603291396001600160a01b038816919063ffffffff612bcb16565b9050600081806020019051602081101561296b57600080fd5b50516001600160e01b031916630a85bd0160e11b1492505050949350505050565b6000816040516020018082805190602001908083835b602083106129c15780518252601f1990920191602091820191016129a2565b6001836020036101000a0380198251168184511680821785525050505050509050019150506040516020818303038152906040528051906020012060001c9050919050565b60009081526001919091016020526040902054151590565b60008181526001830160205260408120548015612ada5783546000198083019190810190600090879083908110612a5157fe5b9060005260206000200154905080876000018481548110612a6e57fe5b600091825260208083209091019290925582815260018981019092526040902090840190558654879080612a9e57fe5b600190038181906000526020600020016000905590558660010160008781526020019081526020016000206000905560019450505050506109d9565b60009150506109d9565b6000612af08383612a06565b612b26575081546001818101845560008481526020808220909301849055845484825282860190935260409020919091556109d9565b5060006109d9565b600082815260018401602052604081205480612b93575050604080518082018252838152602080820184815286546001818101895560008981528481209551600290930290950191825591519082015586548684528188019092529290912055611dec565b82856000016001830381548110612ba657fe5b9060005260206000209060020201600101819055506000915050611dec565b3b151590565b6060611de9848460008585612bdf85612bc5565b612c30576040805162461bcd60e51b815260206004820152601d60248201527f416464726573733a2063616c6c20746f206e6f6e2d636f6e7472616374000000604482015290519081900360640190fd5b60006060866001600160a01b031685876040518082805190602001908083835b60208310612c6f5780518252601f199092019160209182019101612c50565b6001836020036101000a03801982511681845116808217855250505050505090500191505060006040518083038185875af1925050503d8060008114612cd1576040519150601f19603f3d011682016040523d82523d6000602084013e612cd6565b606091505b5091509150612ce6828286612cf1565b979650505050505050565b60608315612d00575081611dec565b825115612d105782518084602001fd5b60405162461bcd60e51b81526020600482018181528451602484015284518593919283926044019190850190808383600083156127a257818101518382015260200161278a565b828054600181600116156101000203166002900490600052602060002090601f016020900481019282601f10612d9857805160ff1916838001178555612dc5565b82800160010185558215612dc5579182015b82811115612dc5578251825591602001919060010190612daa565b50612dd1929150612dd5565b5090565b61076b91905b80821115612dd15760008155600101612ddb56fe456e756d657261626c655365743a20696e646578206f7574206f6620626f756e64733c656c6c697073652072793d22332e35222072783d22322e35222069643d227376675f33222063793d223135342e35222063783d223137332e3522207374726f6b652d77696474683d223322207374726f6b653d2223303030222066696c6c3d2223303030303030222f3e4552433732313a207472616e7366657220746f206e6f6e20455243373231526563656976657220696d706c656d656e7465724f776e61626c653a206e6577206f776e657220697320746865207a65726f20616464726573733c656c6c697073652072793d22332e35222072783d2233222069643d227376675f34222063793d223136392e35222063783d2232303822207374726f6b652d77696474683d2233222066696c6c3d222330303030303022207374726f6b653d2223303030222f3e3c7265637420783d22302220793d2230222077696474683d2234303022206865696768743d2234303022207374796c653d2266696c6c3a234552433732313a207472616e7366657220746f20746865207a65726f20616464726573734552433732313a206f70657261746f7220717565727920666f72206e6f6e6578697374656e7420746f6b656e3c7265637420783d223139362220793d223930222077696474683d22313422206865696768743d2231373622207374796c653d2266696c6c3a234552433732313a20617070726f76652063616c6c6572206973206e6f74206f776e6572206e6f7220617070726f76656420666f7220616c6c4552433732313a2062616c616e636520717565727920666f7220746865207a65726f20616464726573734552433732313a206f776e657220717565727920666f72206e6f6e6578697374656e7420746f6b656e4142434445464748494a4b4c4d4e4f505152535455565758595a6162636465666768696a6b6c6d6e6f707172737475767778797a303132333435363738392b2f456e756d657261626c654d61703a20696e646578206f7574206f6620626f756e64733c656c6c69707365207374726f6b652d77696474683d2233222072793d2232392e35222072783d2232392e35222069643d227376675f32222063793d223136382e35222063783d223230392e3522207374726f6b653d2223303030222066696c6c3d2223666666222f3e4552433732313a20617070726f76656420717565727920666f72206e6f6e6578697374656e7420746f6b656e227d2c7b2274726169745f74797065223a20226368756262696e657373222c202276616c7565223a20222c202261747472696275746573223a205b7b2274726169745f74797065223a2022636f6c6f72222c202276616c7565223a2022233c656c6c69707365207374726f6b652d77696474683d2233222072793d2232392e35222072783d2232392e35222069643d227376675f31222063793d223135342e35222063783d223138312e3522207374726f6b653d2223303030222066696c6c3d2223666666222f3e4552433732313a207472616e73666572206f6620746f6b656e2074686174206973206e6f74206f776e3c7465787420783d223530252220793d223130252220646f6d696e616e742d626173656c696e653d226d6964646c652220746578742d616e63686f723d226d6964646c65223e22207374726f6b652d77696474683d2233222063783d223230342e35222063793d223231312e3830303635222069643d227376675f35222072783d224552433732313a20617070726f76616c20746f2063757272656e74206f776e65724552433732313a207472616e736665722063616c6c6572206973206e6f74206f776e6572206e6f7220617070726f7665643c7376672077696474683d2234303022206865696768743d223430302220786d6c6e733d22687474703a2f2f7777772e77332e6f72672f323030302f737667223e3c7265637420783d223135302220793d22313433222077696474683d2231303222206865696768743d22313422207374796c653d2266696c6c3a23a2646970667358221220bc6a66e0f619ec339717bf701636d7cdc19614cdcb3e2c633d169bfa8c715ee464736f6c63430006070033426c6573736564206172652074686f73652077686f2061726520706572736563757465642062656361757365206f66207269676874656f75736e657373426c6573736564206172652074686f73652077686f2068756e67657220616e642074686972737420666f72207269676874656f75736e657373",
    "linkReferences": {},
    "deployedLinkReferences": {}
}